:020000040800F2
:1000000088060020B5010008BD010008BF010008F6
:10001000C1010008C3010008C5010008000000007C
:10002000000000000000000000000000C701000800
:10003000C901000800000000CB010008410B0008C6
:10004000CF010008CF010008CF010008CF01000850
:10005000CF010008CF010008CF010008CF01000840
:10006000CF010008CF010008CF010008CF01000830
:10007000CF010008CF010008CF010008CF01000820
:10008000CF010008CF010008CF010008CF01000810
:10009000CF010008CF010008CF010008CF01000800
:1000A000CF010008CF010008CF010008CF010008F0
:1000B000010C0008CF010008CF010008CF010008A3
:1000C000CF010008CF010008CF010008CF010008D0
:1000D000CF010008B90F0008CF010008CF010008C8
:1000E000CF010008CF010008CF01000800F002F89E
:1000F00000F050F814A696E8000CB244B344DA4578
:1001000001D100F047F8BAE80F000FA696E83000DA
:10011000A5EB040504EB0607AAEB0704A7F101070A
:100120004FEA15154FEA3414A4F10104AC4201D38F
:1001300000F030F813F0010F18BFFB1A43F0010371
:1001400000F001F8DBE7184788130000A81300004F
:10015000103A24BF78C878C1FAD8520724BF30C8F3
:1001600030C144BF04680C60704700007047000055
:100170000023002400250026103A28BF78C1FBD8B0
:10018000520728BF30C148BF0B6070471FB51FBD65
:1001900010B510BD00F031F81146FFF7F7FF01F080
:1001A0003DF900F04FF803B4FFF7F2FF03BC00F095
:1001B00057F800000948804709480047FEE7FEE776
:1001C000FEE7FEE7FEE7FEE7FEE7FEE7FEE7FEE707
:1001D00004480549054A064B70470000990B000882
:1001E000ED0000088800002088060020880200201A
:1001F00088020020704770477047754600F02CF861
:10020000AE4605006946534620F00700854618B003
:1002100020B5FFF7DDFFBDE820404FF000064FF0AE
:1002200000074FF000084FF0000BAC46ACE8C009E7
:10023000ACE8C009ACE8C009ACE8C00921F007018E
:100240008D46704710B50446AFF300802046BDE8E8
:100250001040FFF7A8BF00000048704708000020CA
:1002600001491820ABBEFEE72600020070470000DF
:1002700080B584B07F20ADF80C0010208DF80F0001
:10028000032000908DF80E0040F60000C4F201003B
:10029000019003A9029100F01FF8009A01980299B9
:1002A0004FF48063ADF80C3004238DF80F308DF8D7
:1002B0000E2000F011F8009A019802994FF4007393
:1002C000ADF80C3018238DF80F308DF80E2000F0AB
:1002D00003F804B080BD000088B0079006910020AC
:1002E0000590049003900290019000900698C078C9
:1002F00000F00F0005900698C078C006002806D5CB
:10030000FFE706988178059808430590FFE706986F
:10031000007800284BD0FFE7079800680190002084
:100320000390FFE7039807283DD8FFE703990120D2
:10033000884002900698008802990840049004982A
:10034000029988422AD1FFE703988000029002991F
:100350000F208840009000990198884301900598EB
:10036000029900FA01F10198084301900698C078BB
:10037000282806D1FFE703990120884007994861A2
:100380000BE00698C078482806D1FFE703990120C2
:10039000884007990861FFE7FFE7FFE7FFE7039859
:1003A00001300390BEE7019807990860FFE70698BF
:1003B0000088B0F5807F50DBFFE707984068019028
:1003C00000200390FFE70398072842D8FFE703982F
:1003D00000F10801012088400290069800880299E7
:1003E000084004900498029988422DD1FFE70398B1
:1003F0008000029002990F20884000900099019897
:10040000884301900598029900FA01F10198084388
:1004100001900698C078282808D1FFE7039800F1DA
:1004200008010120884007994861FFE70698C078D5
:10043000482808D1FFE7039800F10801012088400F
:1004400007990861FFE7FFE7FFE703980130039092
:10045000B9E7019807994860FFE708B070470000C6
:1004600082B00190ADF80210BDF802000199486118
:1004700002B0704782B00190ADF80210BDF80200E2
:100480000199086102B0704782B00190ADF8021086
:100490008DF801209DF8010028B1FFE7BDF80200AA
:1004A0000199086104E0BDF8020001994861FFE785
:1004B00002B0704780B5012000F0F8F80A2000F083
:1004C00081FF80BD80B584B08DF80F009DF80F00CE
:1004D0000021019100F02EF801980290FFE70298A8
:1004E0000F2808DCFFE7202000F08CF8FFE70298D7
:1004F00001300290F3E79DF80F00002100F01AF898
:1005000004B080BD80B582B040F60000C4F20100A6
:10051000009004210191FFF7ADFF032000F068FF78
:1005200000980199FFF79CFF322000F061FF02B0B4
:1005300080BD000080B582B08DF807008DF80610F0
:100540009DF8070030B9FFE79DF8060080308DF870
:10055000050005E09DF80600C0308DF80500FFE7B6
:100560004FF4FA7000F044FF9DF8050000F09EF88B
:10057000322000F03DFF02B080BD000080B586B0A3
:1005800040F60000C4F20100019001210591FFF73F
:1005900067FF019802210391FFF762FF142000F02A
:1005A00011FF0320029000F057F8FFF7ABFF0A207D
:1005B000049000F007FF029800F04EF8FFF7A2FF4A
:1005C000049800F0FFFE029800F046F8FFF79AFF4B
:1005D000049800F0F7FE039800F03EF8FFF792FF52
:1005E000049800F0EFFE282000F060F80C2000F0E6
:1005F0005DF8062000F05AF8059800F057F806B0AC
:1006000080BD000080B584B08DF80F0040F600007A
:10061000C4F20100019001210291FFF72BFF9DF828
:100620000F0000F043F801980299FFF719FF04B09A
:1006300080BD000080B582B00190FFE7019800788E
:1006400040B1FFE701980078FFF7DCFF0198013027
:100650000190F3E702B080BD80B582B08DF807004D
:100660009DF8070000F0010240F60000C4F201000E
:1006700000900821FFF708FF00989DF8071001F08F
:1006800002021021FFF700FF00989DF8071001F00B
:1006900004022021FFF7F8FE00989DF8071001F0F2
:1006A00008024021FFF7F0FE02B080BD80B582B0A5
:1006B0008DF807009DF807000009FFF7CDFFFFF751
:1006C00021FF9DF80700FFF7C7FFFFF71BFF02B0F0
:1006D00080BD000080B582B04FF4A06000F062F8E9
:1006E00025208DF8040000208DF805008DF8060007
:1006F00001208DF8070001A800F002F802B080BDCB
:1007000080B584B003900020029001900F200090EB
:100710000398C078A8B3FFE74EF60C50CEF2000065
:100720000068C043C0F3022002900298C0F10400A8
:10073000019000980299C840009003984078019970
:1007400088400290039880780099014002980843FD
:100750000290029800010290039890F9000002991B
:1007600000F00EFE0398027802F01F01012088407D
:100770001C2101EAD2014EF20012CEF20002885092
:100780000EE00398027802F01F01012088401C212E
:1007900001EAD2014EF28012CEF200028850FFE749
:1007A00004B080BD81B0009000980021C0F2FA51E1
:1007B00008434EF60C51CEF20001086001B07047BC
:1007C00082B001908DF803109DF8030048B1FFE757
:1007D000019A41F21C01C4F202010868104308604A
:1007E00008E0019A41F21C01C4F20201086890433A
:1007F0000860FFE702B0704782B001908DF80310E7
:100800009DF8030048B1FFE7019A41F21801C4F2D4
:10081000020108681043086008E0019A41F21801DB
:10082000C4F20201086890430860FFE702B0704715
:1008300080B582B044F2050001210191FFF7DCFF91
:1008400001990846FFF7BCFF02B080BD86B0059055
:100850000020049003900290019041F20400C4F241
:100860000200006800F00C0004900498009040B171
:10087000FFE7009804280BD0FFE7009808280ED067
:1008800047E0059941F20020C0F27A00086047E095
:10089000059941F20020C0F27A00086040E041F280
:1008A0000400C4F20200016801F4701103910068B1
:1008B00000F4803002900399022000EB91400390F5
:1008C000029848B9FFE7039840F60011C0F23D01D5
:1008D0004843059908601BE041F20400C4F202009D
:1008E00000688003002809D5FFE7039840F600114F
:1008F000C0F23D0148430599086008E0039841F2C1
:100900000021C0F27A01484305990860FFE7FFE73C
:1009100006E0059941F20020C0F27A000860FFE786
:1009200041F20400C4F20200016801F0F0010491F8
:10093000049909090491049A41F2B241C0F60001F8
:100940008A5C0192059B1A68DDF804C022FA0CF259
:100950005A60026802F4E0620492049A120A049255
:10096000049A8A5C0192059B5A68DDF804C022FA59
:100970000CF29A60026802F460520492049AD20A5D
:100980000492049A895C0191059A5168019BD940AF
:10099000D160006800F4404004900498800B0490FB
:1009A000049941F2AE40C0F60000405C0190059908
:1009B000C868019AB0FBF2F0086106B07047000009
:1009C00080B500F001F880BD84B000200390029053
:1009D00041F20001C4F20201086840F4803008606E
:1009E000FFE741F20000C4F20200006800F40030AA
:1009F0000290039801300390FFE7029900200190D4
:100A000039B9FFE70398B0F5A06018BF0120019045
:100A1000FFE70198C0070028E3D1FFE741F200009B
:100A2000C4F2020000688003002803D5FFE701201C
:100A3000029002E000200290FFE70298012851D1C5
:100A4000FFE742F20001C4F20201086840F0100022
:100A50000860086820F007000860086840F002009D
:100A6000086041F20401C4F20201009108680860C4
:100A700008680860086840F480600860086820F42E
:100A80007C100860086840F4E810086041F200013A
:100A9000C4F20201086840F080700860FFE741F28C
:100AA0000000C4F2020000688001002801D4FFE7C2
:100AB000F5E741F20401C4F20201086820F00300E6
:100AC0000860086840F002000860FFE741F2040097
:100AD000C4F20200006800F00C00082801D0FFE713
:100AE000F4E700E0FFE704B07047000080B582B093
:100AF000009000980138B0F1807F03D3FFE7012018
:100B0000019019E0009801384EF21401CEF2000174
:100B100008604FF0FF300F2100F010FC4EF218017A
:100B2000CEF20001002008604EF21002CEF2000268
:100B3000072111600190FFE7019802B080BD00001D
:100B400040F28400C2F200000078012823DBFFE7B6
:100B500040F28600C2F20000018801310180008865
:100B6000642817DBFFE740F28400C2F2000002783D
:100B700040F26B01C2F200010020885440F26A0288
:100B8000C2F200020121117040F28601C2F200019E
:100B90000880FFE7FFE7704780B541F20002C4F22A
:100BA0000202106840F00100106041F20401C4F23A
:100BB000020108680023CFF6FF03184008601068A0
:100BC0004FF6FF73CFF6F66318401060106820F4FC
:100BD00080201060086820F4FE00086041F20801DF
:100BE000C4F202014FF41F000860FFF7E9FE4EF661
:100BF0000851CEF200014FF00060086080BD000097
:100C000080B54FF08040012100F054F801280DD14B
:100C1000FFE740F26801C2F2000108880130088055
:100C20004FF08040012100F003F8FFE780BD000095
:100C300082B00190ADF80210BDF80200C0430199E6
:100C4000088202B07047000082B001908DF8031056
:100C50009DF8030030B1FFE70199088840F00100DA
:100C6000088005E00199088820F001000880FFE76E
:100C700002B0704780B586B00020ADF81400ADF822
:100C80001000ADF812004720ADF80E004FF0804084
:100C900001900DF10E0100F055F801980122029229
:100CA000114600F035F801980299FFF7CDFF06B024
:100CB00080BD000083B00290ADF8061000208DF8D2
:100CC0000500ADF80200ADF800000298008ABDF8FA
:100CD00006100840ADF8020002988089BDF80610A1
:100CE0000840ADF80000BDF8020040B1FFE7BDF8D4
:100CF000000020B1FFE701208DF8050003E000208F
:100D00008DF80500FFE79DF8050003B0704700006F
:100D100082B00190ADF802108DF801209DF801001D
:100D200038B1FFE7BDF80220019988891043888116
:100D300006E0BDF802200199888990438881FFE789
:100D400002B0704783B0029001910020ADF802001C
:100D500002980088ADF80200029842F60041C4F201
:100D60000101884225D0FFE7029843F20041C4F216
:100D7000010188421DD0FFE70298B0F1804F18D0E2
:100D8000FFE7029840F20041C4F20001884210D00F
:100D9000FFE7029840F60001C4F20001884208D043
:100DA000FFE7029840F60041C4F2000188420ED1EC
:100DB000FFE7BDF8020020F07000ADF802000198D6
:100DC0004188BDF802000843ADF80200FFE7029831
:100DD00041F20001C4F20001884216D0FFE70298F8
:100DE00041F20041C4F2000188420ED0FFE7BDF895
:100DF000020020F44070ADF802000198C188BDF8EF
:100E000002000843ADF80200FFE7BDF802000299B6
:100E10000880019880880299888501980088029945
:100E20000885029842F60041C4F20101884220D0B0
:100E3000FFE7029843F20041C4F20101884218D052
:100E4000FFE7029844F20001C4F20101884210D089
:100E5000FFE7029844F20041C4F20101884208D041
:100E6000FFE7029844F60001C4F20101884205D16F
:100E7000FFE70198007A02990886FFE702990120AE
:100E8000888203B07047000080B582B043F600004E
:100E9000C4F2010040F2255100F0ECF8012862D1C3
:100EA000FFE743F60000C4F2010000F033FA8DF8CA
:100EB0000700FFE743F60000C4F20100802100F0C4
:100EC000B7F808B9FFE7F5E79DF8071043F600000B
:100ED000C4F2010000F026FA40F28400C2F20000E1
:100EE0000078A0B9FFE700200090FFE700981828DD
:100EF0000CDCFFE7009A40F26B01C2F20001002017
:100F00008854FFE7009801300090EFE7FFE740F2D8
:100F10008400C2F200000078182807DBFFE740F2E7
:100F20008401C2F2000100200870FFE79DF807006D
:100F300040F28403C2F200031A78511C197040F287
:100F40006B01C2F20001885440F28601C2F2000136
:100F50000020088043F60000C4F2010040F2255151
:100F600000F02EF8FFE702B080BD000080B586B02B
:100F70004FF4E13002900020ADF80C00ADF80E0007
:100F8000ADF81000ADF814000C20ADF8120043F6D7
:100F90000000C4F20100009002A900F00DF90098D1
:100FA00040F225510122019200F0BCF8009801990D
:100FB00000F028F806B080BD80B5FFF765FF80BD62
:100FC00083B00290ADF806100020ADF80400ADF833
:100FD0000200BDF8060040F66A11884201D1FFE721
:100FE000FFE79DF80700ADF80400BDF804100120EC
:100FF0008840ADF80200BDF80200C04302990880A5
:1010000003B0704782B001908DF803109DF8030083
:1010100030B1FFE70199888940F40050888105E0EC
:101020000199888920F400508881FFE702B0704759
:1010300082B00190ADF8021000208DF80100BDF8DB
:101040000200B0F5007F01D1FFE7FFE701980088BB
:10105000BDF802100840000420B1FFE701208DF820
:10106000010003E000208DF80100FFE79DF801007A
:1010700002B0704786B00590ADF8121000200390C2
:10108000029001908DF80300BDF8120040F66A113D
:10109000884201D1FFE7FFE79DF812004009019067
:1010A000BDF8120000F01F00029002990120884054
:1010B00002900198012806D1FFE7059881890298DE
:1010C0000840029010E00198022806D1FFE7059839
:1010D000018A02980840029005E00598818A0298EA
:1010E00008400290FFE7FFE79DF813000390039983
:1010F00001208840039005980188039808400390D8
:10110000029838B1FFE7039820B1FFE701208DF87E
:10111000030003E000208DF80300FFE79DF80300C3
:1011200006B0704786B00590ADF812108DF811200A
:1011300000200390029001900090BDF8120040F64C
:101140006A11884201D1FFE7FFE7059800909DF8FA
:10115000120040090390BDF8120000F01F00029039
:1011600002990120884001900398012804D1FFE7EB
:1011700000980C3000900CE00398022804D1FFE79F
:1011800000981030009003E0009814300090FFE7C2
:10119000FFE79DF8110030B1FFE7019A0099086858
:1011A0001043086005E0019A0099086890430860C0
:1011B000FFE706B07047000080B58CB00B900A9135
:1011C0000020099008900790069005900A98808961
:1011D00008B1FFE7FFE70B9805900B98008A09908C
:1011E00009984CF6FF71084009900A98C18809983F
:1011F0000843099009980B9908820B9880890990F7
:1012000009984EF6F311084009900A9988880A89CE
:1012100010434989014309980843099009980B999B
:1012200088810B98808A099009984FF6FF41084001
:1012300009900A98818909980843099009980B999F
:1012400088826846FFF702FB059843F60001C4F266
:101250000101884203D1FFE70398089002E0029859
:101260000890FFE70B988089000400280AD5FFE763
:101270000898192148430A9909684900B0FBF1F020
:10128000079009E00898192148430A9909688900DC
:10129000B0FBF1F00790FFE7079848F21F51C5F245
:1012A000EB11A0FB01016FF00F0000EA5100099063
:1012B000079A09980009642100FB112006900B98F9
:1012C00080890004002810D5FFE70699322000EB42
:1012D000C10048F21F51C5F2EB11A0FB0110C0F391
:1012E00042110998084309900FE00699322000EB5B
:1012F000011048F21F51C5F2EB11A0FB0110C0F321
:101300004311099808430990FFE709980B99088150
:101310000CB080BD81B00090009880886FF35F2092
:1013200001B0704782B00190ADF80210BDF8020024
:101330006FF35F200199888002B0704782B08DF80A
:10134000070000919DF9070000280AD4FFE70098E4
:1013500000019DF907104EF20042CEF200028854BF
:101360000BE0009800019DF8071001F00F014EF608
:101370001452CEF200028854FFE702B0704700001A
:1013800082B08DF8070000919DF9070000280AD46B
:10139000FFE7009800019DF907104EF20042CEF2DF
:1013A000000288540BE0009800019DF8071001F03E
:1013B0000F014EF61452CEF200028854FFE702B03D
:1013C0007047000080B582B0019000200090FFE7D8
:1013D00000980199884209D2FFE74FF47A7000F033
:1013E00007F8FFE7009801300090F1E702B080BDF8
:1013F00081B0009040F26801C2F200010020088034
:10140000FFE740F26800C2F20000008800998842BD
:1014100001D2FFE7F5E701B07047000080B582B068
:10142000002000900190FFF703FAFEF721FFFFF77D
:1014300021FCFFF79BFDFFF74DF940F20000C2F2DF
:101440000000006844F6D351C1F26201A0FB011014
:101450008009FFF74BFBFFF791F8FFF72BF8009996
:101460000846FFF767F841F2C240C0F60000FFF7F8
:10147000E1F8FFE740F26A00C2F200000078A8B18C
:10148000FFE70120FFF71EF840F26B00C2F20000F8
:10149000FFF7D0F840F28401C2F20001002008708A
:1014A00040F26A01C2F200010870FFE7E2E70204BD
:1014B00006080000000001020304010203040607FD
:1014C000080948656C6C6F20576F726C64212100AD
:1014D000F01400080000002008000000500100087F
:1014E000F8140008080000208006000070010008C1
:0814F00000A24A040000000004
:04000005080000ED02
:00000001FF
